{
  "_format": "hh3-artifact-1",
  "contractName": "BountyVault",
  "sourceName": "contracts/BountyVault.sol",
  "abi": [
    {
      "inputs": [
        {
          "internalType": "address",
          "name": "_treasury",
          "type": "address"
        }
      ],
      "stateMutability": "nonpayable",
      "type": "constructor"
    },
    {
      "inputs": [
        {
          "internalType": "address",
          "name": "owner",
          "type": "address"
        }
      ],
      "name": "OwnableInvalidOwner",
      "type": "error"
    },
    {
      "inputs": [
        {
          "internalType": "address",
          "name": "account",
          "type": "address"
        }
      ],
      "name": "OwnableUnauthorizedAccount",
      "type": "error"
    },
    {
      "inputs": [],
      "name": "ReentrancyGuardReentrantCall",
      "type": "error"
    },
    {
      "anonymous": false,
      "inputs": [
        {
          "indexed": true,
          "internalType": "address",
          "name": "previousOwner",
          "type": "address"
        },
        {
          "indexed": true,
          "internalType": "address",
          "name": "newOwner",
          "type": "address"
        }
      ],
      "name": "OwnershipTransferred",
      "type": "event"
    },
    {
      "anonymous": false,
      "inputs": [
        {
          "indexed": true,
          "internalType": "uint256",
          "name": "bountyId",
          "type": "uint256"
        },
        {
          "indexed": false,
          "internalType": "address",
          "name": "creator",
          "type": "address"
        },
        {
          "indexed": false,
          "internalType": "uint256",
          "name": "reward",
          "type": "uint256"
        }
      ],
      "name": "RewardLocked",
      "type": "event"
    },
    {
      "anonymous": false,
      "inputs": [
        {
          "indexed": true,
          "internalType": "uint256",
          "name": "bountyId",
          "type": "uint256"
        },
        {
          "indexed": false,
          "internalType": "address",
          "name": "reporter",
          "type": "address"
        },
        {
          "indexed": false,
          "internalType": "uint256",
          "name": "payout",
          "type": "uint256"
        },
        {
          "indexed": false,
          "internalType": "uint256",
          "name": "fee",
          "type": "uint256"
        },
        {
          "indexed": false,
          "internalType": "uint256",
          "name": "gasComp",
          "type": "uint256"
        }
      ],
      "name": "RewardReleased",
      "type": "event"
    },
    {
      "anonymous": false,
      "inputs": [
        {
          "indexed": false,
          "internalType": "address",
          "name": "newTreasury",
          "type": "address"
        }
      ],
      "name": "TreasuryUpdated",
      "type": "event"
    },
    {
      "inputs": [
        {
          "internalType": "uint256",
          "name": "",
          "type": "uint256"
        }
      ],
      "name": "bounties",
      "outputs": [
        {
          "internalType": "address",
          "name": "creator",
          "type": "address"
        },
        {
          "internalType": "uint256",
          "name": "reward",
          "type": "uint256"
        },
        {
          "internalType": "bool",
          "name": "isOpen",
          "type": "bool"
        }
      ],
      "stateMutability": "view",
      "type": "function"
    },
    {
      "inputs": [],
      "name": "bountyCount",
      "outputs": [
        {
          "internalType": "uint256",
          "name": "",
          "type": "uint256"
        }
      ],
      "stateMutability": "view",
      "type": "function"
    },
    {
      "inputs": [
        {
          "internalType": "uint256",
          "name": "bountyId",
          "type": "uint256"
        }
      ],
      "name": "getReward",
      "outputs": [
        {
          "internalType": "uint256",
          "name": "",
          "type": "uint256"
        }
      ],
      "stateMutability": "view",
      "type": "function"
    },
    {
      "inputs": [
        {
          "internalType": "uint256",
          "name": "bountyId",
          "type": "uint256"
        }
      ],
      "name": "lockReward",
      "outputs": [],
      "stateMutability": "payable",
      "type": "function"
    },
    {
      "inputs": [],
      "name": "owner",
      "outputs": [
        {
          "internalType": "address",
          "name": "",
          "type": "address"
        }
      ],
      "stateMutability": "view",
      "type": "function"
    },
    {
      "inputs": [],
      "name": "platformFeeBps",
      "outputs": [
        {
          "internalType": "uint256",
          "name": "",
          "type": "uint256"
        }
      ],
      "stateMutability": "view",
      "type": "function"
    },
    {
      "inputs": [
        {
          "internalType": "uint256",
          "name": "bountyId",
          "type": "uint256"
        },
        {
          "internalType": "address",
          "name": "reporter",
          "type": "address"
        },
        {
          "internalType": "uint256",
          "name": "gasCompensation",
          "type": "uint256"
        }
      ],
      "name": "releaseReward",
      "outputs": [],
      "stateMutability": "nonpayable",
      "type": "function"
    },
    {
      "inputs": [],
      "name": "renounceOwnership",
      "outputs": [],
      "stateMutability": "nonpayable",
      "type": "function"
    },
    {
      "inputs": [
        {
          "internalType": "address",
          "name": "_treasury",
          "type": "address"
        }
      ],
      "name": "setTreasury",
      "outputs": [],
      "stateMutability": "nonpayable",
      "type": "function"
    },
    {
      "inputs": [
        {
          "internalType": "address",
          "name": "newOwner",
          "type": "address"
        }
      ],
      "name": "transferOwnership",
      "outputs": [],
      "stateMutability": "nonpayable",
      "type": "function"
    },
    {
      "inputs": [],
      "name": "treasury",
      "outputs": [
        {
          "internalType": "address",
          "name": "",
          "type": "address"
        }
      ],
      "stateMutability": "view",
      "type": "function"
    }
  ],
  "bytecode": "0x60806040526101f4600255348015610015575f5ffd5b506040516109ec3803806109ec833981016040819052610034916100dd565b60015f55338061005d57604051631e4fbdf760e01b81525f600482015260240160405180910390fd5b6100668161008c565b50600380546001600160a01b0319166001600160a01b039290921691909117905561010a565b600180546001600160a01b038381166001600160a01b0319831681179093556040519116919082907f8be0079c531659141344cd1fd0a4f28419497f9722a3daafe3b4186f6b6457e0905f90a35050565b5f602082840312156100ed575f5ffd5b81516001600160a01b0381168114610103575f5ffd5b9392505050565b6108d5806101175f395ff3fe60806040526004361061009a575f3560e01c806361d027b31161006257806361d027b31461013d578063715018a6146101745780638da5cb5b14610188578063dc2f8744146101a5578063f0f4426014610213578063f2fde38b14610232575f5ffd5b80630632eeeb1461009e5780631c4b774b146100bf57806322dcd13e146101005780633e362c96146101155780634a21f0f91461012a575b5f5ffd5b3480156100a9575f5ffd5b506100bd6100b83660046107a7565b610251565b005b3480156100ca575f5ffd5b506100ed6100d93660046107da565b5f9081526005602052604090206001015490565b6040519081526020015b60405180910390f35b34801561010b575f5ffd5b506100ed60025481565b348015610120575f5ffd5b506100ed60045481565b6100bd6101383660046107da565b6104fc565b348015610148575f5ffd5b5060035461015c906001600160a01b031681565b6040516001600160a01b0390911681526020016100f7565b34801561017f575f5ffd5b506100bd61063a565b348015610193575f5ffd5b506001546001600160a01b031661015c565b3480156101b0575f5ffd5b506101ec6101bf3660046107da565b60056020525f90815260409020805460018201546002909201546001600160a01b03909116919060ff1683565b604080516001600160a01b03909416845260208401929092521515908201526060016100f7565b34801561021e575f5ffd5b506100bd61022d3660046107f1565b61064d565b34801561023d575f5ffd5b506100bd61024c3660046107f1565b6106a9565b6102596106e6565b61026161070e565b5f838152600560205260409020600281015460ff166102b05760405162461bcd60e51b815260206004820152600660248201526510db1bdcd95960d21b60448201526064015b60405180910390fd5b6002808201805460ff191690555460018201545f91612710916102d39190610825565b6102dd9190610842565b90505f6102ea8483610861565b90508083600101541161033f5760405162461bcd60e51b815260206004820152601860248201527f446564756374696f6e732065786365656420726577617264000000000000000060448201526064016102a7565b5f8184600101546103509190610874565b90505f866001600160a01b0316826040515f6040518083038185875af1925050503d805f811461039b576040519150601f19603f3d011682016040523d82523d5f602084013e6103a0565b606091505b50506003546040519192505f916001600160a01b039091169086908381818185875af1925050503d805f81146103f1576040519150601f19603f3d011682016040523d82523d5f602084013e6103f6565b606091505b50506040519091505f90339089908381818185875af1925050503d805f811461043a576040519150601f19603f3d011682016040523d82523d5f602084013e61043f565b606091505b5050905082801561044d5750815b80156104565750805b6104945760405162461bcd60e51b815260206004820152600f60248201526e151c985b9cd9995c8819985a5b1959608a1b60448201526064016102a7565b604080516001600160a01b038b16815260208101869052908101879052606081018990528a907fb5a37cee41c167ecbb1246445140702cbbfbd7238c3f085425978bb2bcf7bb6b9060800160405180910390a2505050505050506104f760015f55565b505050565b5f34116105375760405162461bcd60e51b8152602060048201526009602482015268139bc81c995dd85c9960ba1b60448201526064016102a7565b5f81815260056020526040902060010154156105855760405162461bcd60e51b815260206004820152600d60248201526c426f756e74792065786973747360981b60448201526064016102a7565b6040805160608101825233815234602080830191825260018385018181525f8781526005909352948220935184546001600160a01b0319166001600160a01b0390911617845591519183019190915591516002909101805460ff191691151591909117905560048054916105f883610887565b90915550506040805133815234602082015282917fd99a479ac9848c6c0b5914b1d68c76d88421d9dca9fee1305392fcedb990305e910160405180910390a250565b61064261070e565b61064b5f61073b565b565b61065561070e565b600380546001600160a01b0319166001600160a01b0383169081179091556040519081527f7dae230f18360d76a040c81f050aa14eb9d6dc7901b20fc5d855e2a20fe814d19060200160405180910390a150565b6106b161070e565b6001600160a01b0381166106da57604051631e4fbdf760e01b81525f60048201526024016102a7565b6106e38161073b565b50565b60025f540361070857604051633ee5aeb560e01b815260040160405180910390fd5b60025f55565b6001546001600160a01b0316331461064b5760405163118cdaa760e01b81523360048201526024016102a7565b600180546001600160a01b038381166001600160a01b0319831681179093556040519116919082907f8be0079c531659141344cd1fd0a4f28419497f9722a3daafe3b4186f6b6457e0905f90a35050565b80356001600160a01b03811681146107a2575f5ffd5b919050565b5f5f5f606084860312156107b9575f5ffd5b833592506107c96020850161078c565b929592945050506040919091013590565b5f602082840312156107ea575f5ffd5b5035919050565b5f60208284031215610801575f5ffd5b61080a8261078c565b9392505050565b634e487b7160e01b5f52601160045260245ffd5b808202811582820484141761083c5761083c610811565b92915050565b5f8261085c57634e487b7160e01b5f52601260045260245ffd5b500490565b8082018082111561083c5761083c610811565b8181038181111561083c5761083c610811565b5f6001820161089857610898610811565b506001019056fea2646970667358221220a29e9e0f30d0f695f40a13dabeeb61fab639ae1563b55311688d2033a5d6628964736f6c634300081c0033",
  "linkReferences": {},
  "deployedLinkReferences": {},
  "immutableReferences": {},
  "inputSourceName": "project/contracts/BountyVault.sol",
  "buildInfoId": "solc-0_8_28-c7000cb08b9ea4658bca2664ee98a8bc502a6fe5"
}